:020000040800F2
:10000000981E00206D020008332F00080B2B0008FB
:10001000312F00084F050008ED39000800000000EE
:100020000000000000000000000000009D300008FB
:10003000AF050008000000001D3000089F300008D8
:10004000870200088702000887020008870200086C
:10005000870200088702000887020008870200085C
:10006000870200088702000887020008870200084C
:10007000510500085D0500086905000887020008B1
:1000800087020008750500088702000800000000CC
:1000900000000000000000000000000087020008CF
:1000A000870200088702000887020008870200080C
:1000B000870200080000000000000000870200081E
:1000C00087020008870200088702000887020008EC
:1000D00087020008E139000887020008870200084B
:1000E00087020008870200080000000000000000EE
:1000F0000000000000000000000000000000000000
:1001000000000000000000000000000000000000EF
:10011000000000000000000087020008000000004E
:10012000870200088702000887020008870200088B
:10013000870200080000000000000000000000002E
:10014000870200088702000887020008870200086B
:10015000870200088702000887020008870200085B
:10016000870200088702000800000000000000006D
:1001700000000000870200080000000000000000EE
:1001800087020008870200088702000800F002F8D2
:1001900000F05CF80AA090E8000C82448344AAF1C5
:1001A0000107DA4501D100F051F8AFF2090EBAE8C3
:1001B0000F0013F0010F18BFFB1A43F0010318479B
:1001C000E4390000043A00000A444FF0000C10F833
:1001D000013B13F0070408BF10F8014B1D1108BFC5
:1001E00010F8015B641E05D010F8016B641E01F865
:1001F000016BF9D113F0080F1EBF10F8014BAD1CB5
:100200000C1B09D16D1E58BF01F801CBFAD505E0D2
:1002100014F8016B01F8016B6D1EF9D59142D6D32C
:10022000704700000023002400250026103A28BF54
:1002300078C1FBD8520728BF30C148BF0B60704758
:100240001FB503F085FC1FBD10B510BD00F046F9C9
:100250001146FFF7F5FF03F0DBFB00F064F903B490
:10026000FFF7F2FF03BC00F06BF90000094880477C
:1002700009480047FEE7FEE7FEE7FEE7FEE7FEE788
:10028000FEE7FEE7FEE7FEE704480549054A064BA0
:1002900070470000313100088D01000898140020DB
:1002A000981E0020981600209816002053EA020C91
:1002B00000F069802DE9F04B4FF00006002B1FBFC6
:1002C000B3FA83F503FA05F424FA05F65E4012BF8B
:1002D0001643B2FA82F502FA05F4C5F120051EBFF5
:1002E00022FA05FC44EA0C04203556EA044C4FEA95
:1002F000144418BF641C4FF000084FF000099042EE
:1003000071EB030C39D3002919BFB1FA81F701FA57
:1003100007F6B0FA80F700FA07F6C7F120071EBF0C
:1003200020FA07FC46EA0C062037B6FBF4FCA7EBE4
:100330000507103F07F01F0BCBF120060CFA0BFB53
:100340002CFA06F644BFB3460026202FA4BF5E4613
:100350004FF0000B5BEA060C08BF4FF0010B19EBE6
:100360000B09ABFB027C48EB0608C01B06FB02CC6A
:100370000BFB03CC71EB0C01C1E70B460246414677
:100380004846BDE8F08B13B54FF000004FF0000178
:10039000AFF30080BDE81C407047032A40F2308074
:1003A00010F0030C00F0158011F8013BBCF1020FB6
:1003B000624498BF11F801CB00F8013B38BF11F837
:1003C000013BA2F1040298BF00F801CB38BF00F84E
:1003D000013B11F0030300F04F80083AC0F00880A1
:1003E00051F8043B083A51F804CBA0E80810F5E7AF
:1003F000121D5CBF51F8043B40F8043BAFF3008092
:10040000D20724BF11F8013B11F801CB48BF11F806
:10041000012B24BF00F8013B00F801CB48BF00F8D6
:10042000012B70474FF0000200B5134694469646E4
:10043000203922BFA0E80C50A0E80C50B1F12001F7
:10044000BFF4F7AF090728BFA0E80C5048BF0CC0A5
:100450005DF804EB890028BF40F8042B08BF704703
:1004600048BF20F8022B11F0804F18BF00F8012B75
:10047000704770477047704710B5203AC0F00B8046
:10048000B1E81850203AA0E81850B1E81850A0E898
:100490001850BFF4F5AF5FEA027C24BFB1E81850F2
:1004A000A0E8185044BF18C918C0BDE810405FEA62
:1004B000827C24BF51F8043B40F8043B08BF7047DE
:1004C000D20728BF31F8023B48BF11F8012B28BFE3
:1004D00020F8023B48BF00F8012B7047754600F03A
:1004E0002BF8AE4605006946534620F007008546C6
:1004F00018B020B5FFF7C8FEBDE820404FF0000659
:100500004FF000074FF000084FF0000B21F00701FB
:10051000AC46ACE8C009ACE8C009ACE8C009ACE83E
:10052000C0098D46704710B50446AFF300802046E1
:10053000BDE81040FFF793BE004870473814002014
:1005400001491820ABBEFEE7260002007047FEE717
:10055000014800F0D5BB000010120020014800F057
:10056000CFBB0000A0120020014800F0C9BB000072
:1005700058120020014800F0C3BB0000E812002020
:1005800030B590F8444004F01C050124AC40056CE3
:100590006C60046863608368102B036803D0996003
:1005A0000068C26030BD9A600068C16030BD7047AD
:1005B00072B6FEE71F494FF09042012816D002287C
:1005C0001CD003282AD004280FD1086840F001006D
:1005D0000860086840F002000860506940F00400BC
:1005E0005061506920F0400050617047086820F069
:1005F00001000860086840F0020006E0086840F06A
:1006000001000860086820F002000860506940F0AE
:1006100004005061506940F04000E5E7086840F090
:1006200001000860086840F002000860506920F08E
:100630000400EEE7140800482DE9F84F00270446AF
:10064000009790F85000DFF8D0930D46B846012887
:1006500011D0012684F85060206802F061FA60B180
:10066000606D40F0200060655FF0010784F8508005
:10067000384600F0E7B90220FBE768680C2305283C
:1006800012D8022807D0032807D0042807D005284D
:1006900007D0062007E06B6006E0122003E0182078
:1006A00001E04FF480706860D5E90021206803EA1A
:1006B00091131844036B01F01F014FF01F0C0CFA4B
:1006C00001FCC2F3846223EA0C038A4013430363F0
:1006D000206802F025FA8246206802F01DFA5AEAE4
:1006E000000025D1AA6829682068B2F1004F20D007
:1006F00002F01AFA2068416921F000414161206846
:100700006969C268C2F3C102520091402A69042A91
:1007100017D000EB82002B68026EDFF800C303F0F5
:10072000F84302EA0C020B431A4342F0004101660F
:100730007AE0002202F0F8F92068416941F00041B6
:10074000DCE7002102F0E2F9400320684FF00001ED
:1007500072D002F0DBF990FAA0F0B0FA80F12868CC
:1007600042036ED090FAA0F0B0FA80F0814204D13A
:1007700000221146206802F0E6F90121206802F00B
:10078000C5F9400320684FF001015DD002F0BEF9C9
:1007900090FAA0F0B0FA80F12868420359D090FA9C
:1007A000A0F0B0FA80F0814204D10022012120683B
:1007B00002F0C9F90221206802F0A8F9400320687C
:1007C0004FF0020148D002F0A1F990FAA0F0B0FA7F
:1007D00080F12868420344D090FAA0F0B0FA80F08B
:1007E000814204D100220221206802F0ACF90321E9
:1007F000206802F08BF9400320684FF0030133D0EA
:1008000002F084F990FAA0F0B0FA80F1286842036F
:100810002FD090FAA0F0B0FA80F0814204D10022EB
:100820000321206802F08FF92068816811F0010F20
:1008300022D0ACE000E004E002F068F9C0F384618B
:100840008DE7C0F3846091E702F060F9C0F3846142
:10085000A2E7C0F38460A6E702F058F9C0F3846110
:10086000B7E7C0F38460BBE702F050F9C0F38461DE
:10087000CCE7C0F38460D0E72A7B296850F8B03F0A
:10088000C1F3120C23EA0C0302F0180C644A22FA9A
:100890000CF20A4013430360E968494577D12868A0
:1008A00041031CD090FAA0F1B1FA81F1491C01F08A
:1008B0001F0109294FEA403132D8002912D000BF68
:1008C00090FAA0F1B1FA81F101F1010101F01F01EB
:1008D00006FA01F609D100BFC0F3846109E0C0F354
:1008E0008461E3E7C0F38461EEE790FAA0F1B1FA26
:1008F00081F101F1010101F01F0146EA816102D19C
:10090000C0F3846003E090FAA0F0B0FA80F000F148
:10091000010000F01F0000EB400041EA005132E00E
:1009200000290ED090FAA0F1B1FA81F101F1010194
:1009300001F01F0106FA01F606D100BFC0F3846181
:1009400006E0C0F38461F1E790FAA0F1B1FA81F119
:1009500001F1010101F01F0146EA816102D1C0F3FA
:10096000846003E090FAA0F0B0FA80F000F101009A
:1009700000F01F002B4A00EB400002EB005041EA60
:10098000000141F00071AA68206802F0CDF8264805
:100990002A6802423FF46AAE24488168244D254B00
:1009A00001F0E071AA421BD10D0219D422689A42CB
:1009B0007FF45CAE826841F4000122F0E0720A43E9
:1009C00082601D481D490068B0FBF1F0401C00EB3F
:1009D0004000800000E0401E00900028FBD145E66A
:1009E000174DAA4207D1CD0105D422689A42F6D10B
:1009F00041F080710AE06FF00045EA42EFD14A020F
:100A0000EDD422689A42EAD141F48001826822F052
:100A1000E0720A43826029E600007F4000F0FF0395
:100A2000FFFF0700000020FE0000088000030450C4
:100A3000000052C70000045050010020400D030088
:100A4000000084CB18BCBDE8E08F0000F8B54FF083
:100A5000000504002E46009502D0606D10B107E03D
:100A60000120F8BD204600F0D1F8A66584F850605A
:100A700020688168C1F3407119B181685A4A1140F8
:100A8000816020688168C1F3007189B98168574A23
:100A9000114041F080518160554856490068B0FBD3
:100AA000F1F04000801C00E0401E00900028FBD1C7
:100AB00020688168C1F3007141B9616D41F0100196
:100AC0006165A16D41F00101A165012502F028F8E1
:100AD000616DC90600D430B1606D40F010006065F2
:100AE00001252846F8BD606D20F4807040F00200BA
:100AF00060652068806810F0010F10D13E48806862
:100B00003E4900F00100896801F00101084306D167
:100B10003B4960688A6822F47C1202438A60E1687B
:100B2000606B627E0843A16841EA4231084394F851
:100B3000201040EA0140012904D1A18C314A02EB86
:100B400041410843A16A29B101F47071E26A01438D
:100B500042EA01002268D1682B4B19400143D16061
:100B6000206801F0DDFF0646206801F0D5FF304324
:100B700015D1207E94F830102268800340EA4100AD
:100B8000D16844F2020399430143D16094F83800DC
:100B900001280CD02068016921F001010161206960
:100BA00001282068016B21F00F0111D013E0D4E976
:100BB0000F010843D4E911121143084321680A695F
:100BC00040F2FC739A43104340F001000861E6E7ED
:100BD000E269521E11430163606D20F0020040F093
:100BE000010060657DE70000C0FFFF5FC0FFFF7F81
:100BF00050010020400D030000000450000104508B
:100C0000000304500000FEFF07C0F0FF10B586B0DF
:100C1000044614216846FFF705FC11492068884204
:100C20001BD11048C16C41F40051C164C16C01F486
:100C300000510591C16C41F00101C164C06C69466D
:100C400000F001000590102000900B200190002082
:100C500002904FF0904000F05BF906B010BD00002C
:100C6000000104500010024010B590F82510002239
:100C7000022905D00421C16380F82420012010BD81
:100C800001680B6823F00E030B6001680B6823F00A
:100C900001030B6090F84410046C01F01C03012167
:100CA00001FA03F3636080F8251080F824201046D1
:100CB00010BD10B590F825100024022903D004219E
:100CC000C16301241AE001680A6822F00E020A607A
:100CD00001680A6822F001020A6090F84410036C6F
:100CE00001F01C02012101FA02F25A6080F825107D
:100CF000002180F82410816B01B18847204610BD87
:100D0000F0B4016C0C6801680D6890F8442002F0A2
:100D10001C06042202FA06F3234211D06B070FD5FA
:100D20000B689B0603D40B6823F004030B6090F858
:100D3000441001F01C018A40016C4A60016B1DE007
:100D4000022303FA06F727424FF0000C4FF001028E
:100D500018D0AF0716D50C68A40605D40C6824F08B
:100D60000A040C6080F8252090F8441001F01C0162
:100D70008B40016C4B6080F824C0C16A00291AD0F6
:100D8000F0BC08470823B340234214D02B0712D5E8
:100D90000B6823F00E030B6090F84410036C01F015
:100DA0001C0102FA01F15960C26380F8252080F825
:100DB00024C0416BE2E7F0BC7047000070B568B139
:100DC0002B4C036814212B4AA34209D22A4C1C4401
:100DD000B4FBF1F18900C0E910210BE0012070BDE6
:100DE000234C64421C44B4FBF1F189004164204966
:100DF00008390164022180F825101C6847F6F0715B
:100E00008C43D0E902152943D0E9045635432943E0
:100E100085692943C5692943056A29432143196026
:100E20008168B1F5804F19D0036C0F21934202D134
:100E300052F8A83F02E00E4AA032136890F84440EE
:100E400004F01C04A1408B43136090F844304168C7
:100E500003F01C0399401368194311600021C1631A
:100E6000012280F8252080F82410084670BD00007B
:100E70000804024000000240F8FFFDBF70B50446C0
:100E800090F82400002501280CD0012084F82400CB
:100E900094F825600020012E06D084F82400022555
:100EA000284670BD022070BD022684F82560E063EC
:100EB0002068066826F0010606602046FFF760FB02
:100EC000206B00282068016802D041F00E0106E086
:100ED00021F0040101602068016841F00A0101600D
:100EE0002068016841F001010160D9E770B504464E
:100EF00000F026F90546601C02D00448007804443E
:100F000000F01EF9401BA042FAD370BD440100203E
:100F10002DE9F04FDFF80092002301260325A9F107
:100F2000040B85B00F2709F1040AABF1040EEAE0C7
:100F300006FA03F422407CD091F804C00CF0030CB4
:100F4000BCF1010F02D0BCF1020F26D1D0F808C0CD
:100F5000CDF800C04FEA430C05FA0CF8CDF810C0EC
:100F6000DDF800C02CEA080CCDF800C0D1F80C80E8
:100F7000DDF810C008FA0CF8DDF800C048EA0C08EB
:100F8000C0F80880D0F804C02CEA040C0C79C4F333
:100F900000149C4044EA0C0444600C79E443A40728
:100FA0000DD0D0F80CC04FEA430805FA08F42CEA3B
:100FB000040C8C6804FA08F444EA0C04C4600C794C
:100FC00004F00304022C19D1DC0800EB8404029421
:100FD000246A4FEA437C4FEADC6CCDF810C007FA74
:100FE0000CFC24EA0C04D1F81080DDF810C008FADB
:100FF0000CF848EA0408029CC4F8208004684FEA10
:10100000430805FA08FC24EA0C0491F804C00CF02B
:10101000030C0CFA08FC4CEA040CC0F800C04C6845
:1010200014F4403F6ED03D4CD4F860C04CF0010C3D
:1010300000E067E0C4F860C0246E23F0030C04F005
:1010400001040094364C64440294A4684FEA837C03
:101050004FEA1C7807FA08FC24EA0C04B0F1904F20
:1010600006D0DFF8C0C0604505D14FF0010C12E09A
:101070004FF0000C0FE0DFF8B0C0604502D14FF038
:10108000020C08E0DFF8A4C0604502D14FF0030C69
:1010900001E04FF0070C0CFA08FC4CEA040C029C2F
:1010A000C4F808C0D9F80040CC46D1F80480944375
:1010B0005FEAC82800D51443CCF80040DAF80040B5
:1010C000D446D1F8048094435FEA882800D51443BD
:1010D000CCF80040DBF80040DC46D1F804809443B3
:1010E0005FEA883800D51443CCF80040DEF80040B1
:1010F000F446D1F8048094435FEAC83800D514431D
:10110000CCF800405B1C0A6832FA03F47FF410AF9D
:1011100005B000F00DB800000804014000100240C6
:10112000000001400004004800080048000C00488E
:1011300030BCBDE8C08F0AB18161704781627047E1
:1011400001488068704700004401002090F8412069
:10115000202A24D190F84020012A20D0012280F8B2
:101160004020242280F841200268136823F0010304
:1011700013600268136823F48053136002681368D5
:101180000B43136001680A6842F001020A602021E3
:1011900080F84110002180F8401008467047022076
:1011A000704790F84120202A22D190F84020012A4F
:1011B0001ED0012280F84020242280F841200268BD
:1011C000136823F0010313600268136823F470634B
:1011D00043EA0121116001680A6842F001020A60D5
:1011E000202180F84110002180F840100846704707
:1011F0000220704770B5040004D094F84100002527
:1012000010B106E0012070BD84F84050204600F087
:101210004DF8242084F841002068016821F0010184
:1012200001606068216820F0706008612068816852
:1012300021F400418160E0680128A06807D040F4F3
:10124000044021688860E068022803D006E040F48A
:101250000040F6E721684FF400604860206841686C
:10126000114A114341602068C16821F40041C16006
:10127000D4E904010843A16940EA01202168C8605B
:10128000D4E907010843216808602068016841F03B
:10129000010101606564202084F84100256384F821
:1012A0004250002070BD00000080000230B593B0B5
:1012B000044614210DA8FFF7B5F834216846FFF75E
:1012C000B1F817492068884228D1002540200595AB
:1012D0000090684600F006F908B1FFF769F9114C73
:1012E000E06C40F00200E064E06C0DA900F0020048
:1012F00012904FF440700D901220CDE90E0503209E
:101300001090042011900848FFF702FEA06D40F4F1
:101310000010A065A06D00F40010129013B030BD55
:101320000054004000100240000400480248816858
:1013300002781144816070474401002010B50024F8
:10134000032000F071F80F2000F008F808B1012424
:1013500001E000F025F8204610BD000070B50E4EEB
:1013600005460024307898B14FF47A71B1FBF0F063
:101370000A490968B1FBF0F000F0A4FD40B9102D56
:1013800006D200222946501E00F02EF8756000E0BB
:101390000124204670BD00004401002050010020BF
:1013A000094808B5016E41F001010166016E01F0C6
:1013B00001010091816D41F080518165806D00F0E7
:1013C0008050009008BD000000100240002809DB9A
:1013D00000F01F02012191404009800000F1E0204F
:1013E000C0F8001170470000F0B40E4B1B680C46AB
:1013F000C3F30223C3F10705042D00D90425191DE9
:10140000072901D2002300E0DB1E012606FA05F1C0
:10141000491E214099409E40761E16403143F0BC43
:1014200002F0E5BA0CED00E0064900F0070208689A
:101430004FF6FF03184040EA0220034A10430860B9
:10144000704700000CED00E00000FA051649B0F509
:10145000007F0868C0F3412009D0022805D0086841
:1014600020F4C06040F480600860002070470128CC
:10147000FBD0086820F4C06040F4007008600B489E
:101480003222006850430A4AB0FBF2F0401C00E0F0
:10149000401E4A69520501D50028F9D14869400526
:1014A000E3D5032070470000007000405001002089
:1014B00040420F000248006800F4C060704700001E
:1014C000007000400248016841F48071016070477B
:1014D000007000400248016841F00401016070475B
:1014E000001002402DE9F843044600680026774DBD
:1014F00080035ED5A86D0027C00008D4A86D40F019
:101500008050A865A86D012700F080500090DFF89A
:10151000C091D9F8001041F48071C9F80010FFF7AC
:101520000FFE804606E000BFFFF70AFEA0EB0800B2
:1015300002282BD8D9F80000C005F5D5D5F89000C1
:1015400010F4407014D0216B814211D0D5F8900076
:10155000D5F8901020F4407041F48031C5F8901017
:10156000D5F8901021F48031C5F89010C5F890009E
:10157000C00711D0FFF7E4FD804641F2883907E04B
:10158000FFF7DEFDA0EB0801494501D903260BE07A
:10159000D5F890008007F3D5D5F89000216B20F4A2
:1015A00040700843C5F890001FB1A86D20F080502E
:1015B000A8652078C00707D0D5F88800616820F0BA
:1015C00003000843C5F888002078800707D5D5F8C0
:1015D0008800A16820F00C000843C5F88800207836
:1015E000400707D5D5F88800E16820F030000843AF
:1015F000C5F888002078800607D5D5F888002169CD
:1016000020F440600843C5F888002088800507D58D
:10161000D5F88800216A20F440200843C5F88800E6
:101620002088400507D5D5F88800616A20F440106D
:101630000843C5F888002078400607D5D5F888000B
:10164000616920F440500843C5F8880020780006FE
:1016500007D5D5F88800A16920F440400843C5F8B3
:1016600088002088C00507D5D5F88800E16920F4F6
:1016700040300843C5F8880020884FF0006180049E
:101680000ED5D5F88800A26A20F040601043C5F856
:101690008800A06A884203D1E86840F48010E860BE
:1016A000206840030ED5D5F88800E26A20F040603B
:1016B0001043C5F88800E06A884203D1E86840F426
:1016C0008010E8603046BDE8F8830000001002405A
:1016D000007000402DE9F0470F4605006BD0494EE1
:1016E000306800F00700B84209D2306820F00700E7
:1016F00038433060306800F00700B8425BD128788A
:10170000414C80070AD5A868A16801F0F001884221
:1017100004D9A16821F0F0010143A1602878C00735
:101720002CD06868032811D0022812D0216898B103
:10173000490500293FDAA16821F003010143A160B6
:10174000FFF7FEFC804641F2883910E021688901EC
:10175000EFE721688903ECE78907EAE7FFF7F0FC88
:10176000A0EB0801494502D90320BDE8F087A06835
:10177000696800F00C00B0EB810FEFD1287880078A
:101780000AD5A868A16801F0F001884204D2A168D6
:1017900021F0F0010143A160306800F00700B84279
:1017A0000BD9306820F0070038433060306800F013
:1017B0000700B84201D00120D7E72878400705D5B7
:1017C000A068E96820F4E0600843A060287800077A
:1017D00006D5A068296920F4605040EAC100A060E5
:1017E00000F03EF8A168094AC1F30311515C01F011
:1017F0001F01C8400649086006480068BDE8F04778
:10180000FFF7ACBD00200240001002405C3B000826
:1018100050010020480100200548064900688968F9
:10182000054AC1F30221515C01F01F01C840704715
:1018300050010020001002409C3B0008054806496A
:1018400000688968054AC1F3C221515C01F01F019B
:10185000C840704750010020001002409C3B000827
:1018600070B52549002318468A68CC6812F00C022E
:1018700004F00306214C4FEA640509D00C2A05D078
:10188000042A32D0082A00D1284670BD012E10D17A
:101890000B681B0704D4D1F89430C3F3032302E090
:1018A0000B68C3F30313164E56F82330DAB10C2A33
:1018B000EBD1C86800F00300022818D0032818D024
:1018C0001846CA68CB68C2F30212C3F30623434327
:1018D000521CB3FBF2F2C868C0F34160401C4000E8
:1018E000B2FBF0F070BD184670BD204670BD2046BA
:1018F000E7E72846E5E70000001002400024F40076
:101900006C3B00082DE9F84304006FD0FE4DA86839
:1019100000F00C06E86800F003072078C00664D5E4
:1019200076B10C2E01D1012F0AD0E0690028286879
:101930007AD040F001002860FFF702FC80465DE0AD
:101940002868800702D5E0690028DED0616A28682F
:10195000000703D5286800F0F00004E0D5F89400F3
:10196000F02202EA1010814216D9084601F058FB15
:1019700000283BD1286840F0080028602868616A88
:1019800020F0F000084328606868216A20F47F4056
:1019900040EA0120686016E0286840F008002860EE
:1019A0002868616A20F0F000084328606868216AAE
:1019B00020F47F4040EA0120686026B9606A01F0A7
:1019C0002FFB0028D5D1FFF74BFFA968CF4AC1F301
:1019D0000311515C01F01F01C840CD490860CD489A
:1019E0000068FFF7BBFC00287ED12EE0C4E000BFFA
:1019F000FFF7A6FBA0EB0800022876D8286880072E
:101A0000F6D5286840F0080028602868616A20F050
:101A1000F000084328606868216A20F47F4040EAAB
:101A20000120686011E0FFE720F001002860FFF767
:101A300087FB804606E000BFFFF782FBA0EB0800B3
:101A40000228DAD828688007F6D42078C00740D06A
:101A5000082E18D00C2E01D1032F14D06068B0F5D9
:101A6000803F17D0B0F5A02F286817D020F4803021
:101A70002860286820F4802028606068E0B1FFF7C3
:101A80005FFB804614E02868800322D56068002848
:101A900072D01EE0286840F48030EDE740F48020EA
:101AA0002860F7E7FFF74CFBA0EB08006428A4D8F8
:101AB00028688003F6D50CE0FFF742FB804605E07E
:101AC000FFF73EFBA0EB0800642896D82868800347
:101AD000F6D4207880073BD5042E11D00C2E01D1EE
:101AE000022F0DD0E06801E0DAE117E10028286854
:101AF0001ED040F480702860FFF722FB07460CE000
:101B0000286840050CD5E0680028C1D008E000BF77
:101B1000FFF716FBC01B022893D828684005F7D5AD
:101B20006868217C20F0FE4040EA016068600FE0B8
:101B300020F480702860FFF703FB074605E000BF34
:101B4000FFF7FEFAC01B0228B1D828684005F7D479
:101B50002078000753D560690028D5F894003DD05F
:101B6000A16900F01002914223D081074FEAC070B2
:101B700003D500288CD001E071E190B1D5F8940034
:101B800020F00100C5F89400FFF7DAFA074604E0F8
:101B9000FFF7D6FAC01B112889D8D5F89400800722
:101BA000F6D4D5F89400A16920F010000843C5F8D8
:101BB0009400D5F8940040F00100C5F89400FFF7B8
:101BC000BFFA074605E000BFFFF7BAFAC01B1128AD
:101BD000A2D8D5F894008007F6D510E020F00100D7
:101BE000C5F89400FFF7ACFA074604E0FFF7A8FA3F
:101BF000C01B112890D8D5F894008007F6D420781F
:101C0000400778D5A86D0027C00008D4A86D40F023
:101C10008050A865A86D012700F0805000903E48D4
:101C20000168C90512D40168814641F480710160E0
:101C3000FFF786FA804605E0FFF782FAA0EB08007E
:101C400002286BD8D9F80000C005F5D5A068C107F7
:101C500020D0D5F8901000F0800021F080010143E1
:101C6000C5F89010207A400705D5D5F8900040F0CF
:101C70000400C5F89000D5F8900040F0010000BFC6
:101C8000C5F89000A06841F28839D0B1FFF758FA42
:101C9000804611E0D5F8900020F00100C5F89000D2
:101CA000D5F8900020F00400EAE700BFFFF748FAFB
:101CB000A0EB0801494531D8D5F890008007F5D54B
:101CC00014E0FFF73DFA804606E000BFFFF738FA60
:101CD000A0EB0801494521D8D5F890008007F5D43C
:101CE000D5F8900020F08000C5F890001FB1A86DD5
:101CF00020F08050A8652078800634D5A06A00289E
:101D0000D5F898001ED00AE0001002405C3B0008A5
:101D10005001002048010020007000408CE040F09D
:101D20000100C5F89800FFF70BFA074605E000BF71
:101D3000FFF706FAC01B02287ED8D5F89800800766
:101D4000F6D510E020F00100C5F89800FFF7F8F98B
:101D5000074604E0FFF7F4F9C01B02286CD8D5F859
:101D600098008007F6D4E06AD8B3022809D00C2E78
:101D700075D0286820F080702860FFF7E1F90446EC
:101D800090E0E868226B00F0030191421FD1616B83
:101D900000F0700209011039914218D1A26B00F4D1
:101DA000FE41B1EB022F12D1A18F00F4C00249080D
:101DB0004905A1F50011914209D194F8401000F0B5
:101DC000C06049084906A1F10071814248D00C2E3B
:101DD00071D0286820F080702860FFF7B1F90646BE
:101DE00005E055E0FFF7ACF9801B022857D82868BA
:101DF0008001F7D4D4E90C016FF00F0202EB01115E
:101E00000843A18F5204490802EB4151A26B41EAF9
:101E10000221084394F840104FF07E42490802EB3B
:101E200041610843E968254A11400843E860286891
:101E300040F08070286000E031E0E86840F0807099
:101E4000E860FFF77DF9044605E000BFFFF778F989
:101E5000001B022823D828688001F7D529E02AE052
:101E60002868800125D4286840F080702860E868E0
:101E700040F08070E860FFF763F9044605E000BFBA
:101E8000FFF75EF9001B022809D828688001F7D502
:101E90000FE000BFFFF754F9001B022802D903200E
:101EA000BDE8F88328688001F4D4E8680449084054
:101EB000E8600020F4E70120F2E700008C809FF941
:101EC000FCFFEFFE10B5401EB0F1807F01D3012072
:101ED00010BD4FF0E02460610F21601701F087FD15
:101EE0000020A06107202061002010BD30B590F8CF
:101EF0003C20012A37D0012280F83C20CA688C6837
:101F000022F4407222434C6822F4806222430C681F
:101F100022F4006222430C6922F4805222434C696D
:101F200022F4005222438C6A22F4804222430C8B1A
:101F300022F4702242EA04420C4D04680023AC42B1
:101F40000CD18D8C22F4700242EA0552CD6922F048
:101F500080722A43096A22F000720A43626480F8A0
:101F60003C30002030BD022030BD0000002C01407C
:101F7000F0B590F83C20012A29D0012480F83C409B
:101F8000022280F83D2003685A689D68114EB342D2
:101F900003D122F470074A683A4322F070070A68B6
:101FA0003A435A600268B24205D0B2F1804F02D083
:101FB000094B9A4204D1896825F080031943916046
:101FC00080F83D40002180F83C100846F0BD02201A
:101FD000F0BD0000002C01400040014010B504009D
:101FE00003D094F83D0010B107E0012010BD00209F
:101FF00084F83C00204600F023F8022084F83D00DD
:10200000211D206801F09CF8012084F8480084F824
:102010003E0084F83F0084F8400084F8410084F8D2
:10202000420084F8430084F8440084F8450084F8B2
:10203000460084F8470084F83D00002010BD0000F1
:102040002DE9F84F0446414A01684148914270D158
:10205000016E41F400610166006E3F4D00F40060C6
:1020600000903C4807264FF01008A5E841010027E2
:102070004FF080094FF4807A4FF4806BA5E8800E12
:10208000202065E807073448FEF798FE08B1FEF700
:102090008FFA6562AC62304D2E484835283085E8AD
:1020A00041010020C5E903092021C5E90710574671
:1020B0002846C5E905ABFEF781FE08B1FEF778FAC0
:1020C0002563A5636563AC62234D22489035B24613
:1020D0001430C5F80880C5E9000A00268020C5E94B
:1020E0000360B9462027C5E90776C5E9059B284660
:1020F000FEF764FE08B1FEF75BFAA562AC62164D0E
:102100001448D8356430C5F80880C5E9000A802035
:10211000C5E90360C5E90776C5E9059B2846FEF7D2
:102120004DFE08B1FEF744FAE562AC6200F016B865
:10213000FFE7B1F1804FF9D1816D41F00101816577
:10214000806D00F001000090F0E70000002C0140DD
:10215000001002401C0002401012002018BCBDE814
:10216000E08F000070B5044690F83C00002501287F
:1021700017D0012684F83C60022084F83D002268D4
:1021800090682F4B184020F47F40906008685028DA
:1021900038D00DDC20284FD005DC90B3102811D1A9
:1021A0004AE0022070BD302846D040280AD13BE0EA
:1021B00060282FD070280DD0B0F5805F03D0B0F527
:1021C000005F12D0012584F83D60002084F83C00B7
:1021D000284670BDCB68D1E90121206801F068F87C
:1021E0002068816841F0770109E0CB68D1E90121DD
:1021F000206801F05DF82068816841F480418160C9
:10220000E1E719E0CA684968206801F0A1F95021A6
:10221000206806E0CA684968206801F0AAF96021D0
:10222000206801F04FF8CEE7CA684968206801F0DD
:102230008FF940212068F4E7226801461046F0E754
:1022400088FFFEFF7047000010B586B004461421D9
:102250006846FEF7E7F80F492068884217D10E4814
:10226000C16C41F00101C164C06C032100F00100A8
:1022700005904FF470600090022001900120CDE99C
:102280000201049069464FF09040FEF741FE06B00F
:1022900010BD0000002C01400010024070B5044643
:1022A00090F83C0000260D4601280BD0012084F850
:1022B0003C000C2A4AD007DC82B1042A20D0082A2C
:1022C00006D131E0022070BD102A53D0142A63D009
:1022D0000126002084F83C00304670BD206800F0E4
:1022E000F9FF2068816941F00801816120688169F6
:1022F00021F004018161206881692A69114311E09C
:10230000206801F023F82068816941F4006181614F
:102310002068816921F480618161206881692A696E
:1023200041EA02218161D4E7206801F04BF820687E
:10233000C16941F00801C1612068C16921F004014F
:10234000C1612068C1692A69114311E0206801F068
:1023500073F82068C16941F40061C1612068C169F6
:1023600021F48061C1612068C1692A6941EA0221C2
:10237000C161AEE7206801F08FF82068416D41F03F
:10238000080141652068416D21F004014165206824
:10239000416D2A69114311E0206801F0ABF8206813
:1023A000416D41F4006141652068416D21F4806117
:1023B00041652068416D2A6941EA0221416588E74B
:1023C00010B5040003D094F83D0010B107E00120DF
:1023D00010BD002084F83C00204600F022F80220C6
:1023E00084F83D00211D206800F0AAFE012084F839
:1023F000480084F83E0084F83F0084F8400084F8E8
:10240000410084F8420084F8430084F8440084F8D2
:10241000450084F8460084F8470084F83D00002019
:1024200010BD704710B5017F012906D0022906D0E2
:10243000042906D0082906D008E0002104E0042180
:1024400002E0082100E00C2100F0F0F80149012031
:10245000087010BD40000020704700002DE9F041D9
:1024600017460D0004464FF0000610D0042D15D07D
:10247000082D1AD00C2D1FD0102D24D094F8430015
:10248000022827D094F84300012826D07CE094F855
:102490003E0002281ED094F83E00F5E794F83F0075
:1024A000022817D094F83F00EEE794F84000022885
:1024B00010D094F84000E7E794F84100022809D0D2
:1024C00094F84100E0E794F84200022802D094F822
:1024D0004200D9E70220BDE8F0819FB393B34C4995
:1024E0004C4ADFF834C1022055B1042D19D0082D13
:1024F00029D00C2D38D0102D48D084F8430047E067
:1025000084F83E00606AC162606A39460263606AAC
:10251000C0F834C02268606A3432FEF7AFFC88B974
:1025200038E084F83F00A06AC162A06A39460263BD
:10253000A06AC0F834C02268A06A3832FEF79EFC58
:1025400000B92CE020E084F84000E06AC162E06A53
:1025500039460263E06AC0F834C02268E06A3C325F
:10256000FEF78CFC80B91FE084F84100206BC1624B
:10257000206B39460263206BC0F834C02268206BA0
:102580004032FEF77BFCA0B10120A4E784F84200B2
:1025900001263AE02068C16841F400710DE020682E
:1025A000C16841F4806108E02068C16841F40061BD
:1025B00003E02068C16841F48051C16001222946CE
:1025C000206800F0F3FD15492068154A884204D0C0
:1025D000904202D0134B984203D1436C43F4004322
:1025E00043642068884204D0B0F1804F01D090420B
:1025F00007D181680C4A1140062906D0B1F5803F09
:1026000003D0016841F001010160304663E700003A
:10261000C7310008253200085D320008002C014057
:1026200000400140004401400700010070B50D006A
:1026300004464FF0000607D0042D0CD0082D11D011
:102640000C2D16D001264FE02068C16821F40071DE
:10265000C160606A13E02068C16821F48061C160D4
:10266000A06A0CE02068C16821F40061C160E06AE2
:1026700005E02068C16821F48051C160206BFEF73D
:1026800018FB00222946206800F090FD1F4B41F204
:10269000111120688A10984205D01D4B984202D033
:1026A0001C4B984209D1036A0B4206D1036A1342BC
:1026B00003D1436C23F4004343642068036A0B4254
:1026C00006D1016A114203D1016821F001010160C4
:1026D00001205DB1042D0CD0082D0DD00C2D0ED095
:1026E000102D0FD084F84300304670BD84F83E00B2
:1026F000FAE784F83F00F7E784F84000F4E784F84D
:102700004100F1E784F84200EEE70000002C0140B0
:10271000004001400044014070477047704700008E
:102720002DE9F04102680446D0691168936840F6CB
:102730000F0528424FF0000505D186067ED58E068E
:102740007CD5616E1BE1994F03F001060F403743C2
:1027500074D0C70709D0CF0507D501271762D4F871
:10276000802042F00102C4F8802082070AD5DA07EF
:1027700008D0276802223A62D4F8802042F004028E
:10278000C4F8802042070AD5DA0708D0236804225B
:102790001A62D4F8802042F00202C4F880200207B6
:1027A0000CD501F02002324308D0236808221A62B7
:1027B000D4F8802042F00802C4F8802002050BD52E
:1027C0004A0109D523684FF400621A62D4F88020C8
:1027D00042F02002C4F88020D4F88020002A35D0AE
:1027E000800605D5880603D5616E09B12046884765
:1027F000D4F8800021688968490602D410F0280FB7
:1028000026D0204600F063FF2068806840061AD575
:102810002068083050E8001F21F0400140E8001215
:10282000002AF5D1206F70B161498163206FFEF7F6
:1028300040FA00280AD0206F816B01E00EE02046AC
:10284000BDE8F04108472046FFF768FFBDE8F0818A
:102850002046FFF763FFC4F88050F7E7276E202675
:10286000012F7BD1C70679D5CF0677D5102010620E
:1028700020688068400641D5216F086840680004E0
:10288000000CE3D0B4F858208242DFD9A4F85A00F3
:102890000868006880062AD4206850E8001F21F4E8
:1028A000807140E80012002AF6D12068083050E814
:1028B000001F21F0010140E80012002AF5D1206834
:1028C000083050E8001F21F0400140E80012002AC3
:1028D000F5D1E6672566216851E8000F20F0100069
:1028E00041E80002002AF6D1206FFEF7BDF9B4F8E6
:1028F0005800B4F85A10401A81B22AE0B4F85800CF
:10290000B4F85A10401A81B2B4F85A0000289DD089
:1029100000299BD0226852E8000F20F4907042E812
:102920000003002BF6D12068083050E8002F22F079
:10293000010240E80023002BF5D1E66725666566B5
:10294000226852E8000F20F0100042E80003002B3C
:10295000F6D12046FFF7E0FE78E7FFE7C70209D58A
:102960005B0207D54FF4801010622046BDE8F041AD
:10297000FFF7D3BE020606D50A0604D5A16E0029CC
:102980007FF45DAF62E74006E6D54806E4D5204611
:10299000026852E8001F21F0400142E80013002BBA
:1029A000F6D18667856600F0AFF84FE72001000496
:1029B000BB36000810B5040002D0A06F10B107E0CC
:1029C000012010BD002084F87400204600F026F895
:1029D0002420A0672068016821F0010101602046E1
:1029E00000F09AFE0128ECD0606A10B1204600F099
:1029F000D2FD2068416821F49041416020688168DF
:102A000021F02A0181602068016841F00101016024
:102A10002046BDE8104000F022BE00002DE9F04144
:102A200094B0044614210DA8FDF7FCFC342168463F
:102A3000FDF7F8FC2F4920682F4C022603270025BC
:102A40004FF0070888422DD10120CDE900056846E6
:102A5000FEF748FD08B1FDF7ABFD206E40F4804065
:102A60002066206E00F480401290E06C40F002007E
:102A7000E064E06C0FAA00F002001290C020CDE9E3
:102A80000D0682E8A0010DA91C48FEF741FA0022BC
:102A900011462520FEF7A8FC2520FEF797FC14B070
:102AA000BDE8F08116498842F9D1042000900395D1
:102AB0006846FEF717FD08B1FDF77AFDA06D40F4FA
:102AC0008020A065A06D00F480201290E06C40F0A2
:102AD0000400E064E06C0FAA00F0040012904FF4D0
:102AE0004060CDE90D0682E8A0010DA90548FEF77A
:102AF0000FFAD4E7003801400010024000040048FB
:102B000000480040000800487047FEE700EB8100E5
:102B1000006E00F0F84070478068C0F3C000704756
:102B20008068C0F380007047042303EAD15310B5D6
:102B300018444369C1F3045107248C40A3438A40DD
:102B40001343436110BD00EB8100016E21F0004191
:102B5000114301667047000030B587B01821684600
:102B6000FDF760FC184817490024C0E90014846090
:102B70000425C460C0E90445047644760121C1619E
:102B800080F820408462C46280F83040446380F85A
:102B90003840FDF75BFF08B1FDF70AFD0B480090D8
:102BA0000620CDE901047F200594CDE9030569469F
:102BB0000548FDF741FD002801D0FDF7F9FC07B0FD
:102BC00030BD000000010450C01000200002B025FC
:102BD000154808B5816C41F001018164806C0022C8
:102BE00000F00100009011460C20FEF7FDFB0C20C8
:102BF000FEF7ECFB002211460D20FEF7F5FB0D2041
:102C0000FEF7E4FB002211460E20FEF7EDFB0E203E
:102C1000FEF7DCFB002211461120FEF7E5FBBDE8C4
:102C200008401120FEF7D2BB001002402DE9F0430E
:102C300087B014216846FDF7F5FB2B48C16C41F0C5
:102C40000401C164C16C01F004010591C16C41F043
:102C50008001C164C16C01F080010591C16C41F03B
:102C60000101C164C16C01F001010591C16C41F029
:102C70000201C164C06C1D4F00F0020005900022EB
:102C800003213846FEF757FA4FF0904800224F21B3
:102C90004046FEF750FADFF858904FF4684600229D
:102CA00031464846FEF747FA0320009001250024EC
:102CB000CDE90154694638460394FEF729F94F20BF
:102CC0000090CDE90154694640460394FEF720F98F
:102CD0000096CDE90154694648460394FEF718F979
:102CE00007B0BDE8F0830000001002400008004873
:102CF00000040048134810B51149016012494160B1
:102D000000210122C0E90212016141618161C161BA
:102D10000162FEF76FFA08B1FDF74AFC002109488D
:102D2000FEF714FA08B1FDF743FC00210548FEF751
:102D300038FA002803D0BDE81040FDF739BC10BDBB
:102D40000054004024110020EB9B900010B59AB075
:102D500000241794189415941694129413941C211B
:102D600068461494FDF75EFB2C2107A8FDF75AFB7B
:102D700037483649C0E900147F21C0E902410461A7
:102D800044618461FFF72AF908B1FDF711FC4FF4A3
:102D90008050159015A92E48FFF7E4F908B1FDF70A
:102DA00007FC2B48FFF70CFB08B1FDF701FC129460
:102DB000139412A926481494FFF7DAF808B1FDF726
:102DC000F7FB6020CDE900044FF48070CDE90440AA
:102DD00002940394002269461D480694FFF75EFAA8
:102DE00008B1FDF7E5FB0422694619480594FFF791
:102DF00055FA08B1FDF7DCFB082269461448FFF7D5
:102E00004DFA08B1FDF7D4FB0C2269461048FFF7D4
:102E100045FA08B1FDF7CCFB0794089409944FF4E8
:102E200000500A94CDE90B400003CDE90E400D940B
:102E3000109407A906481194FFF758F808B1FDF758
:102E4000B7FB0348FFF700FA1AB010BD002C014091
:102E50007811002010B588B0002416480094019421
:102E600002940394049405944FF080410694C0E9C1
:102E700000147F21C0E9024104618461FFF7AEF8CC
:102E800008B1FDF795FB4FF4805000906946094862
:102E9000FFF768F908B1FDF78BFB049404A9054816
:102EA0000694FFF765F8002801D0FDF781FB08B014
:102EB00010BD0000C41100200D4810B50B49016081
:102EC0004FF4E1314160002181600C22C160C0E912
:102ED00004128161C16101624162FFF76BFD00284C
:102EE00003D0BDE81040FDF763BB10BD00380140C2
:102EF000301300200D4810B50B4901604FF4E1314B
:102F00004160002181600C22C160C0E9041281612E
:102F1000C16101624162FFF74DFD002803D0BDE8A9
:102F20001040FDF745BB10BD00480040B413002021
:102F3000FEE7FEE7F0B500210E4E6427DFF838E02B
:102F40004FF400041B2556F8213001EB41021720F5
:102F50000EEB021224FA00FC13EA0C0F02D022F846
:102F6000107001E022F81050401EF3D5491C1029C2
:102F7000E9DBF0BD00000020540100202DE9F047FE
:102F8000DFF88C8092460E460546002408F540790D
:102F90001BE0285D04EB4402000900EB400109EB53
:102FA000421708EB011107F136003022FDF7F5F961
:102FB000285D302200F00F0000EB400108EB01110A
:102FC00007F16600FDF7E9F9641CB4EB560FE0DB8E
:102FD000504640F23663BAF1010F0DD002280ED0F0
:102FE00003280FD0BAF1040F0FD10A4A0821BDE817
:102FF000F0470948FFF732BA064A0021F7E7054AC9
:103000000C21F4E7034A0421F1E7BDE8F087000052
:103010005401002054040020781100207047000063
:10302000F8B51C4D06460024A86DC00002D5FEF779
:1030300041FA0DE0A86D40F08050A865A86D00F041
:1030400080500090FEF736FAA96D21F08051A965F5
:10305000B0F5007F04D0802E07D94FF003040AE0BA
:10306000802E08D9A02E01D804E001D1022402E06C
:10307000702E00D101240848016821F00701214386
:103080000160006800F00700A04201D00120F8BDF7
:103090000020F8BD00100240002002407047FEF7FB
:1030A00045B9000010B596B044216846FDF7BAF95D
:1030B000142111A8FDF7B6F94FF40070FEF7C6F918
:1030C00008B172B6FEE7FEF7FDF9184850F8901FF8
:1030D00021F0180101601420002460210090CDE946
:1030E00008410120029007900221CDE90B100D90BC
:1030F0002820CDE90E0168461091FEF703FC08B1C7
:1031000072B6FEE70F2011900320CDE912044FF4B0
:10311000806014901590042111A8FEF7DBFA08B125
:1031200072B6FEE7FEF7D6F916B010BD00100240E9
:103130000248016841F470010160704788ED00E0C9
:1031400070B50268164B4FF08046984201D0B042ED
:1031500003D122F070044A682243124C124D984267
:1031600005D0B04203D0A04201D0A84203D122F43E
:103170004076CA6832434E6922F0800232430260D0
:103180008A68C2620A688262984203D0A04201D073
:10319000A84201D1096901630121416170BD0000AC
:1031A000002C0140004001400044014010B501F0F6
:1031B0001F030121046A99408C430462016A9A400A
:1031C0001143016210BD10B5846A0121626A824216
:1031D00005D12177C069F8B984F83E101CE0A26AD5
:1031E000824206D102222277C069A8B984F83F1032
:1031F00012E0E26A824206D104222277C06958B9FD
:1032000084F8401008E0226B824205D10822227720
:10321000C06908B984F841102046FFF703F900207F
:10322000207710BD10B5846A616A814201D1012006
:103230000DE0A16A814201D1022008E0E16A8142E9
:1032400001D1042003E0216B814201D108202077C5
:103250002046FFF701F90020207710BD10B5846AE1
:103260000121626A824203D1217784F83E1019E07D
:10327000A26A824204D10220207784F83F1011E034
:10328000E26A824204D10420207784F8401009E0E9
:10329000226B824204D10820207784F8411001E09B
:1032A00084F83D102046FEF7CDFF0020207710BDAA
:1032B00010B5846842EA032224F47F440A4322437F
:1032C000826010BD826822F070020A4342F007015A
:1032D00081607047F0B5026A22F001020262056A5D
:1032E00043688269154C25F0020522400C6822F0E3
:1032F000030214438A68134E2A43114D124FA84209
:1033000003D0B04201D0B84206D122F0080CCA68FE
:1033100042EA0C0222F00402A84203D0B04201D0DB
:10332000B84205D14D6923F440731D438B692B438B
:1033300043608461496841630262F0BD8FFFFEFF14
:10334000002C0140004001400044014030B5026AB9
:1033500022F010020262046A42688369154D2B4014
:103360000D6823F4407343EA052524F020038C689C
:1033700043EA0413104CA04207D1CC6823F0800329
:1033800043EA041323F0400305E00C4CA04202D0B2
:103390000B4CA04207D14C6922F4406242EA8402FD
:1033A0008C6942EA840242608561496881630362F4
:1033B00030BD0000FF8FFFFE002C014000400140A7
:1033C0000044014030B5026A22F480720262046A4D
:1033D0004268C369144D2B400D6823F003031D435D
:1033E00024F400738C6843EA0423104CA04207D1F4
:1033F000CC6823F4006343EA042323F4806305E0EC
:103400000B4CA04202D00B4CA04207D14C6922F4D5
:10341000405242EA04128C6942EA04124260C561D9
:103420004968C163036230BD8FFFFEFF002C01407D
:10343000004001400044014030B5026A22F480524D
:103440000262046A4268C3690F4D24F400542B40A1
:103450000D6823F4407343EA05238D6844EA05347C
:103460000A4DA84205D00A4DA84202D0094DA842F3
:1034700004D14D6922F4804242EA85124260C36160
:1034800049680164046230BDFF8FFFFE002C0140DB
:10349000004001400044014030B5026A22F480320D
:1034A0000262046A4268436D0E4D2B400D681D4355
:1034B00024F400330C8943EA04430B4CA04205D0AA
:1034C0000A4CA04202D00A4CA04204D14C6922F41A
:1034D000803242EA042242604565496881650362A0
:1034E00030BD00008FFFFEFF002C01400040014076
:1034F0000044014030B5026A22F480120262046A7C
:103500004268436D0E4D24F400142B400D6843EACD
:1035100005230D8944EA05540A4DA84205D00A4DF9
:10352000A84202D0094DA84204D14D6922F480225C
:1035300042EA8522426043654968C165046230BD44
:10354000FF8FFFFE002C014000400140004401407D
:1035500010B5036A046A24F001040462846924F04B
:10356000F00444EA021423F00A020A43846102626E
:1035700010BD10B5036A23F0100303628369046A67
:1035800023F4704343EA023224F0A00343EA01111A
:103590008261016210BD90F82410C90706D001684D
:1035A0004A68836A22F400321A434A6090F8241071
:1035B000890706D501684A68C36A22F480321A4333
:1035C0004A6090F82410490706D501684A68036BE1
:1035D00022F480221A434A6090F82410090706D585
:1035E00001684A68436B22F400421A434A6090F82B
:1035F0002410C90606D501688A68836B22F48052BC
:103600001A438A6090F82410890606D501688A68F2
:10361000C36B22F400521A438A6090F824104906C2
:1036200011D501684A68036C22F480121A434A607B
:10363000016CB1F5801F06D101684A68436C22F421
:10364000C0021A434A6090F82410090606D50168A2
:103650004A68806C22F4002202434A607047F8B541
:1036600000260446C0F88060FDF76AFD0546206824
:1036700000686FF07E47000708D52B4600224FF404
:1036800000112046009700F047F960B920680068F3
:1036900040070AD52B4600224FF4800120460097B0
:1036A00000F03AF908B10320F8BD2020A067E067D8
:1036B000266684F874600020F8BD10B5806A002189
:1036C000A0F85A10A0F85210FFF728F810BD0168B2
:1036D00051E8002F22F4907241E80023002BF6D12C
:1036E0000168083151E8002F22F0010241E800236F
:1036F000002BF5D1016E012908D1026852E8001FA4
:1037000021F0100142E80013002BF6D12021C167FF
:1037100000210166416670472DE9F04104460168C9
:1037200080682269E3691043626900251A431043E7
:10373000714F0A68714B1A4002430A602068416861
:10374000E26821F44051114341602168A069B94207
:1037500001D0226A10438A6822F4306202438A60F0
:103760006749236867488B420DD1D0F8880010F074
:10377000030006D0012847D0022843D0032830D1C7
:1037800044E001212EE060498B420BD1D0F8880043
:1037900010F00C0034D0042836D0082832D00C2881
:1037A0001FD133E059498B420BD1D0F8880010F07B
:1037B000300025D0102827D0202823D0302810D141
:1037C00024E0BB420DD1D0F8880010F4406017D03F
:1037D000B0F5806F18D0B0F5006F13D0B0F5406F22
:1037E00014D010214A4A00264FF40040BB422FD18A
:1037F00071B102290FD004290FD0082973D10FE02D
:103800000021EFE70221EDE70421EBE70821E9E7DA
:10381000FEF702F803E0104602E0FEF721F8E8B3F5
:10382000626802EB420181425DD8B0EB023F5AD898
:10383000010E03025008181871410023FCF736FDF1
:10384000344AA0F5407191424DD82168C8604BE0E0
:10385000E3694FF6EF77834228D1092943D2DFE8A5
:1038600001F005080B420D4242421000FDF7D4FF63
:1038700006E0FDF7E3FF03E0104602E0FDF7F0FF8E
:1038800060B14100606801EB5001B1FBF0F0A0F1C4
:103890001001B94227D84FF6F07100E024E0014052
:1038A000C0F3420001432068C1601DE009291AD21B
:1038B000DFE801F005080B190D1919191000FDF7C3
:1038C000ABFF06E0FDF7BAFF03E0104602E0FDF7AC
:1038D000C7FF48B1616800EB5100B0FBF1F0A0F107
:1038E0001001B94205D9012566662846A666BDE8DD
:1038F000F08180B2A9E7000000800040F369FFEF8B
:1039000000380140001002400044004000480040E0
:103910000024F400FFFC0F002DE9F0479A461746FB
:103920000E4604464FF000094FF02008089D4AE07B
:10393000681C48D0FDF704FCA0EB0A00A8422AD876
:103940004DB32068016849073DD5C069C0430005F3
:1039500039D421684FF400600862206850E8001FE5
:1039600021F4D07140E80012002AF6D12068083016
:1039700050E8001F21F0010140E80012002AF5D1B3
:10398000C4F87880C4F87C80C4F8808084F874908F
:103990000320BDE8F087216851E8000F20F4D070C3
:1039A00041E80002002AF6D12068083050E8001FE4
:1039B00021F0010140E80012002AF5D1C4F8788016
:1039C000C4F87C80E2E72068C06936EA000004D0D1
:1039D0000020B842ACD00020DBE70120F9E700006E
:1039E0000148FEF79DBE000030130020FEE70907E6
:1039F000090E002804DB00F1E02080F80014704775
:103A000000F00F0000F1E02080F8141D7047000066
:103A1000FDF794FCFFF746FBFFF708F9FFF7D8F82E
:103A2000FFF768F9FFF792F9FFF714FAFFF744FA86
:103A3000FFF760FAFFF790F8FFF77CFA4248016859
:103A400041F001010160016841F0020101604FF0A5
:103A50009040416941F004014161416941F04001F8
:103A600041613A4C0120002520700120FCF7A2FDA5
:103A700020780028FDD03548257001224021401CC7
:103A8000FFF77CFA0320FDF731FA20780028FDD0FB
:103A90002E482570022240212130FFF76FFA0320C3
:103AA000FDF724FA20780028FDD02848257003224D
:103AB00040214130FFF762FA0320FDF717FA207822
:103AC0000028FDD021482570042240216130FFF7F5
:103AD00055FA0320FDF70AFA0220FCF76BFD207867
:103AE0000028FDD019482570012240218130FFF7C0
:103AF00045FA0320FDF7FAF920780028FDD0134895
:103B0000257002224021A130FFF738FA0320FDF78B
:103B1000EDF920780028FDD00C48257003224021C3
:103B2000C130FFF72BFA0320FDF7E0F920780028D9
:103B3000FDD00648257004224021E130FFF71EFA2F
:103B40000320FDF7D3F990E7140800484000002057
:103B50004FF04070E1EE100A7047000000000000D6
:103B6000000000000102030406070809A086010006
:103B7000400D0300801A060000350C0040420F0083
:103B800080841E0000093D0000127A000024F40029
:103B900000366E010048E801006CDC020000000005
:103BA00001020304C43B000800000020540100008F
:103BB000C8010008043C000854010020441D000016
:103BC000240200082122FF1A7F042AFF047907112A
:103BD0001282124B34FAE6E6091C200B1D0111017A
:103BE0000A1D22010A1D33010A1D44010A1D550147
:103BF0000A1D66010A1D77010A1D88013132018202
:043C00001013093D57
:040000050800018D61
:00000001FF
